S0100000346269745F4C43442E737265636F
S11300000C942A000C943F000C943F000C943F0085
S11300100C943F000C943F000C943F000C943F0060
S11300200C943F000C943F000C943F000C943F0050
S11300300C943F000C943F000C943F000C943F0040
S11300400C943F000C943F000C943F000C943F0030
S11300500C943F0011241FBECFE5D8E0DEBFCDBF16
S113006010E0A0E6B0E0E0E0F2E002C005900D92FE
S1130070A037B107D9F70E94E9000C94FE000C9454
S1130080000092B39F70282F207F922B92BBA898D8
S1130090A99AEFE3FFE13197F1F700C00000A998B6
S11300A0EFE3FFE13197F1F700C0000022B32F70B6
S11300B0F0E18F9FC0011124822B82BBA99A8FE3A8
S11300C09FE10197F1F700C00000A998EFE3FFE179
S11300D03197F1F700C00000089584B3836084BBB6
S11300E081B3806F81BB8FE39FE10197F1F700C07B
S11300F0000081E00E94410082E00E94410088E209
S11301000E94410086E00E9441008CE00E94410070
S113011080E80E944100089592B39F70282F207FA9
S1130120922B92BBA89AA99AEFE3FFE13197F1F7DA
S113013000C00000A998EFE3FFE13197F1F700C098
S1130140000022B32F70F0E18F9FC0011124822B95
S113015082BBA99A8FE39FE10197F1F700C00000E9
S1130160A998EFE3FFE13197F1F700C0000008958B
S1130170CF93DF93EC018881882361F021960E945C
S11301808C008FE39FE10197F1F700C00000899193
S11301908111F5CFDF91CF910895CF93DF93EA01D9
S11301A0813041F4603178F4862F8F7080680E942A
S11301B0410009C0823039F4603128F4862F8F70F1
S11301C0806C0E944100CE010E94B800DF91CF9163
S11301D008950E946D0040E650E065E081E00E94D1
S11301E0CD008FE39CE90197F1F700C0000047E6DA
S11301F050E065E082E00E94CD00FFCFF894FFCF8D
S113020048656C6C6F2100476F6F646279652100EB
S9030000FC
